:020000040800F2
:100000009804002005010008690800080708000896
:1000100065080008E103000817130008000000004D
:10002000000000000000000000000000310E000889
:10003000BD04000800000000210C00081D0F00088E
:100040001F0100081F0100081F0100081F01000810
:100050001F0100081F0100081F0100081F01000800
:100060001F0100081F0100081F0100081F010008F0
:100070001F0100081F0100081F0100081F010008E0
:100080001F0100081F0100081F0100081F010008D0
:100090001F0100081F0100081F0100081F010008C0
:1000A0001F0100081F0100081F0100081F010008B0
:1000B0001F0100081F0100081F0100081F010008A0
:1000C0001F0100081F0100081F0100081F01000890
:1000D0001F010008810F00081F0100081F01000810
:1000E0001F0100081F0100081F010008DFF810D0E1
:1000F00000F066F80048004759150008AFF300808B
:10010000980400200648804706480047FEE7FEE7BF
:10011000FEE7FEE7FEE7FEE7FEE7FEE7FEE7FEE7B7
:10012000210F0008ED00000840EA01039B0703D0FF
:1001300009E008C9121F08C0042AFAD203E011F826
:10014000013B00F8013B521EF9D27047D2B201E0E8
:1001500000F8012B491EFBD270470022F6E710B5CC
:1001600013460A4604461946FFF7F0FF204610BD25
:1001700030B505462A460B4612F8010B13F8014B21
:1001800008B1A042F8D01CB1002802D06D1CF1E7E4
:10019000284630BD30B50B46014600202022012400
:1001A00009E021FA02F59D4205D303FA02F5491B45
:1001B00004FA02F52844151EA2F10102F1DC30BD5B
:1001C000064C074D06E0E06840F0010394E80700A4
:1001D00098471034AC42F6D3FFF78CFF701C000830
:1001E000901C000800B587B00121480200F026FDF0
:1001F0000121042000F022FD4FF4004000F012FD28
:1002000000208DF81B004020ADF8180003208DF869
:100210001A0006A9194800F059FA052301220821FD
:10022000174800F077F800208DF8090004904FF48B
:10023000602003900020019001208DF81400002020
:100240008DF8080001A90E4800F03CF801210C4887
:1002500000F018F80A4800F0B9F800BF084800F0AC
:1002600026F80128FAD0064800F0B5F800BF044887
:1002700000F013F80128FAD007B000BD00080140D3
:100280000024014021B1826842F00102826003E053
:10029000826822F0010282607047014600208A686D
:1002A00002F004020AB1012000E00020704701467C
:1002B00000208A6802F008020AB1012000E0002054
:1002C0007047000030B502460020002350680F4CF4
:1002D00020400D790C6844EA052420435060906862
:1002E0000B4C2040D1E902542C434D7944EA45049B
:1002F00020439060D06A20F470000C7C641EE4B24D
:10030000234340EA0350D06230BD0000FFFEF0FFFF
:10031000FDF7F1FFF0B504460D4600200021092D40
:1003200011DDE068A5F10A0606EB4607072606FA86
:1003300007F18843A5F10A0606EB460603FA06F123
:100340000843E0600CE0206905EB4507072606FA44
:1003500007F1884305EB450603FA06F108432061DF
:10036000072A0FDA606B561E06EB86071F2606FA71
:1003700007F18843561E06EB860605FA06F1084388
:10038000606322E00D2A0FDA206BD61F06EB86078A
:100390001F2606FA07F18843D61F06EB860605FAE4
:1003A00006F10843206310E0E06AA2F10D0606EBB7
:1003B00086071F2606FA07F18843A2F10D0606EB11
:1003C000860605FA06F10843E062F0BD816841F057
:1003D000080181607047816841F0040181607047C5
:1003E00000BFFEE708B50121042000F027FC04202F
:1003F000ADF8000010208DF8030003208DF80200F6
:100400006946044800F062F90421024800F0F4F95A
:1004100008BD00000008014008B50420ADF8000048
:1004200048208DF803006946014800F04FF908BDE7
:100430000008014008B50420ADF8000010208DF838
:10044000030003208DF802006946024800F03EF9DF
:1004500008BD00000008014010B5164800F098FCE7
:10046000012825D11348027802230A21184600F0FA
:1004700081FB11A20C21022000F09EFB0D48427866
:1004800002230D21184600F075FB0A4882780223EA
:100490000621012000F06EFB07A20821012000F0D8
:1004A0008BFB0448C27801230921184600F062FB47
:1004B00010BD0000260000202E000000704700B58F
:1004C000034603E04FF47A7000F005F8181EA3F11C
:1004D0000103F7D100BD00EBC001C9004FF0E022DD
:1004E0005161002191610521116100BF4FF0E021B0
:1004F000096901F480310029F8D004214FF0E0228D
:100500001161704710B51CA000F008FF4FF47A701D
:10051000FFF7D5FF1AA000F001FF4FF47A70FFF744
:10052000CEFF1AA000F0FAFE4FF47A70FFF7C7FF73
:100530001AA000F0F3FE4FF47A70FFF7C0FF1BA083
:1005400000F0ECFE4FF4FA60FFF7B9FF20A000F0D6
:10055000D5FE4FF47A70FFF7B2FF2BA000F0DEFE5D
:1005600040F6B830FFF7ABFF31A000F0D7FE4FF4F4
:100570007A70FFF7A4FF10BD41540D0A000000007F
:1005800041542B5253540D0A0000000041542B4398
:10059000574D4F44453D310D0A00000041542B4357
:1005A00049504D55583D310D0A00000041542B4330
:1005B000574A41503D226E6F6E657468656C657375
:1005C00073222C223838383838383838220D0A004F
:1005D00041542B4D515454555345524346473D3099
:1005E0002C312C22657370486F6D65222C22657347
:1005F0007038323636222C22313233222C302C30D5
:100600002C22220D0A00000041542B4D515454431A
:100610004F4E4E3D302C223139322E3136382E3469
:10062000332E323232222C313838332C310D0A003D
:1006300041542B4D5154545355423D302C226C653E
:10064000642F23222C310D0A0000000030B5ADF5D7
:100650001B7D04460D4664220C4982A8FFF764FD09
:10066000234682AA0AA102A8009500F067FE02A90B
:1006700015A000F053FE1420FFF721FF4FF4007186
:1006800002A8FFF76AFD0DF51B7D30BD0C1C0008AC
:1006900041542B4D5154545055423D302C2225731A
:1006A000222C227B5C2268756D695C223A25645C91
:1006B0002C5C2274656D705C223A25647D222C319D
:1006C0002C300D0A00000000257300002DE9F041D8
:1006D000024600250026002000230024002791F870
:1006E00003C00CF00F0591F803C00CF0100CBCF126
:1006F000000F03D091F802C04CEA050591F800C044
:10070000BCF1000F31D0146800202BE04FF0010C39
:100710000CFA00F3B1F800C00CEA03069E4220D1A7
:1007200083004FF00F0C0CFA03F7BC4305FA03FCEF
:100730004CEA040491F803C0BCF1280F06D14FF035
:10074000010C0CFA00FCC2F814C00AE091F803C0D6
:10075000BCF1480F05D14FF0010C0CFA00FCC2F8B7
:1007600010C0401C0828D1D31460B1F800C0BCF1FF
:10077000FF0F34DD546800202EE000F1080C4FF02C
:10078000010808FA0CF3B1F800C00CEA03069E4217
:1007900021D183004FF00F0C0CFA03F7BC4305FA8C
:1007A00003FC4CEA040491F803C0BCF1280F05D106
:1007B00000F1080C08FA0CF8C2F8148091F803C094
:1007C000BCF1480F07D100F1080C4FF0010808FAFE
:1007D0000CF8C2F81080401C0828CED35460BDE845
:1007E000F0810246002093680B400BB1012000E02D
:1007F0000020704741617047016170470AB1016193
:1008000000E04161704700BFFEE7000008B501212C
:10081000042000F013FA48208DF803002020ADF8E2
:10082000000003208DF8020069460248FFF74EFFE2
:1008300008BD00000008014008B50121042000F0B7
:10084000FDF910208DF803000120ADF80000032011
:100850008DF8020069460248FFF738FF08BD000026
:100860000008014000BFFEE77047000070B500219E
:1008700000230F22C47804B3154C246804F4E06408
:10088000C4F5E064210AC1F10403CA40447804FAC3
:1008900003F184781440214309010E4C0678A155D8
:1008A000047804F01F050124AC4005786D11AD00FB
:1008B00005F1E025C5F8004109E0047804F01F05C2
:1008C0000124AC40044D0678761145F8264070BDF1
:1008D0000CED00E000E400E080E100E002490143AB
:1008E000024A1160704700000000FA050CED00E0BC
:1008F00070B500240EE00021204600F0F0F800253D
:1009000004E0002000F07CF9681CC5B2802DF8DB03
:10091000601CC4B2082CEEDB70BD000008B50121DC
:10092000082000F08BF914208DF8030003208DF8C7
:1009300002004FF48070ADF8000069460A48FFF7E6
:10094000C5FE4FF40070ADF8000069460648FFF799
:10095000BDFE012211020448FFF750FF012251029F
:100960000148FFF74BFF08BD000C014070B505467C
:10097000002415E08020204100EA05024FF40071B8
:100980000E48FFF73BFF012211020C48FFF736FF2C
:1009900000224FF480710948FFF730FF601CC4B299
:1009A000082CE7DB012211020448FFF727FF002291
:1009B0004FF480710148FFF721FF70BD000C01402A
:1009C00010B5012251020A48FFF718FF0122110257
:1009D0000748FFF713FF00224FF400710448FFF7A8
:1009E0000DFF00224FF480710148FFF707FF10BD93
:1009F000000C014010B500224FF400710648FFF7CB
:100A0000FDFE012211020448FFF7F8FE0122510207
:100A10000148FFF7F3FE10BD000C014070B5002443
:100A200006E0002500E06D1CB5F57A7FFBD3641C61
:100A3000B4F57A7FF5D3FFF771FFAE2000F0D0F860
:100A4000D52000F0CDF8802000F0CAF8A82000F0F2
:100A5000C7F83F2000F0C4F8D32000F0C1F8002010
:100A600000F0BEF8402000F0BBF8A12000F0B8F87C
:100A7000C82000F0B5F8DA2000F0B2F8122000F03B
:100A8000AFF8812000F0ACF8CF2000F0A9F8D92011
:100A900000F0A6F8F12000F0A3F8DB2000F0A0F8A9
:100AA000302000F09DF8A42000F09AF8A62000F075
:100AB00097F88D2000F094F8142000F091F8AF2002
:100AC00000F08EF8FFF714FF70BD10B5024601204C
:100AD00000E050430B1EA1F10101FAD110BD70B529
:100AE00005460C4645F0B00000F07AF8102141EAC6
:100AF000141000F075F804F00F0000F071F870BDEC
:100B00002DE9F04105460E461746721ED206110E1B
:100B10006A1E5206100EFFF7E2FF002409E0A7F15B
:100B20002001134A02EB0111085D00F069F8601C16
:100B3000C4B2082CF3DB721ED206110E6A1E01230A
:100B400003EB4202D0B2FFF7CAFF00240BE0A7F18B
:100B50002001074A02EB011204F10801505C00F089
:100B60004FF8601CC4B2082CF1DBBDE8F081000036
:100B70001C1600082DE9F04780460E4617461D4614
:100B8000002415E0281B411E0A20FFF79EFFB7FB3B
:100B9000F0F00A21B0FBF1F201FB120000F1300984
:100BA0003019C1B24A464046FFF7AAFF601CC4B2E2
:100BB000AC42E7DBBDE8F0872DE9F04107460E4681
:100BC0001546002407E02A5D3019C1B23846FFF708
:100BD00097FF601CC4B2285D0028F4D1BDE8F08105
:100BE00010B50446FFF7ECFE7820FFF7BFFE0020AB
:100BF000FFF7BCFE2046FFF7B9FEFFF7FBFE10BD76
:100C000010B50446FFF7DCFE7820FFF7AFFE40206A
:100C1000FFF7ACFE2046FFF7A9FEFFF7EBFE10BD85
:100C20007047000001460020034A506820F440400D
:100C300008435060704700000010024029B1064A86
:100C400092690243044B9A6104E0034A9269824329
:100C5000014B9A61704700000010024030B500213E
:100C60000022002400232D4D6D6805F00C0121B1F8
:100C7000042905D0082923D105E0294D056022E08B
:100C8000274D05601FE0254D6D6805F47012234D5A
:100C90006D6805F48034022505EB92421CB9214DA4
:100CA000554305600BE01D4D6D6805F400351DB121
:100CB0001C4D5543056002E0194D5543056002E0A7
:100CC000174D056000BF00BF144D6D6805F0F001C1
:100CD0000909154D6B5C0568DD4045600F4D6D6879
:100CE00005F4E061090A104D6B5C4568DD408560E4
:100CF0000A4D6D6805F46051C90A0B4D6B5C45687F
:100D0000DD40C560054D6D6805F44041890B074D18
:100D10006B5CC568B5FBF3F5056130BD00100240A2
:100D200000127A0000093D000000002010000020A1
:100D300070B50025002424E000BF04211348FFF70C
:100D400050FD0028F9D02820FFF7C5FB04210F48EB
:100D5000FFF747FD01280DD100BF04210B48FFF725
:100D600040FD0128F9D0C4F1070101208840C0B23C
:100D7000054304E0C4F10701012088408543601C5D
:100D8000C4B2082CD8DB284670BD00000008014022
:100D900010B50446FFF74EFB04212448FFF72AFD57
:100DA0001420FFF78CFB04212048FFF725FD1E20AF
:100DB000FFF791FBFFF730FB04211C48FFF711FD03
:100DC00080BB00BF04211948FFF70BFD0028F9D0B4
:100DD00000BF04211548FFF704FD0128F9D0FFF7F3
:100DE000A7FF2070FFF7A4FF6070FFF7A1FFA070BE
:100DF000FFF79EFFE070FFF79BFF2071FFF71AFBE4
:100E000004210A48FFF7F8FC207861780844A178AB
:100E10000844E17808442179884201D1012010BDBD
:100E20000020FCE7FFE70020F9E700000008014090
:100E3000704710B500F002F810BD00000CB500209E
:100E4000019000903348006840F4803031490860D8
:100E500000BF3048006800F4003000900198401C4A
:100E60000190009818B90198B0F5A06FF1D1294808
:100E7000006800F4003010B10120009001E0002073
:100E800000900098012843D12348006840F01000EA
:100E9000214908600846006820F003000860084601
:100EA000006840F0020008601A484068194948602C
:100EB0000846406848600846406840F480604860E2
:100EC0000846406820F47C1048600846406840F4BA
:100ED000E81048600846006840F08070086000BF75
:100EE0000C48006800F000700028F9D009484068FC
:100EF00020F00300074948600846406840F00200BF
:100F0000486000BF0348406800F00C000828F9D191
:100F10000CBD00000010024000200240704700009D
:100F200010B51348006840F00100114908600846F8
:100F30004068104908400E494860084600680E495C
:100F400008400B4908600846006820F480200860CB
:100F50000846406820F4FE0048604FF41F00886097
:100F6000FFF767FF4FF000600449086010BD000004
:100F7000001002400000FFF8FFFFF6FE08ED00E061
:100F800010B540F225512B4800F0E2F8012850D16D
:100F9000284800F099F9C4B227480078D8B9274802
:100FA00027490978405CA0423DD1264800780028B6
:100FB00039D123480078401C214908700846007840
:100FC0002149097888422ED101201B490870002050
:100FD0001B49087027E01848007801280FD10D2C14
:100FE00009D01A4816490978445415480078401C1D
:100FF0001349087017E002200F49087013E00E48EB
:10100000007802280FD10A2C0DD100200A4908705F
:1010100000210E480A4A12788154012009490870BB
:1010200000200749087040F22551024800F068F896
:1010300000BF10BD0038014015000020170000203F
:10104000160000201400002025000020340000209D
:1010500000B587B001218803FFF7F0FD01210420CE
:10106000FFF7ECFD18208DF81B004FF40070ADF871
:10107000180003208DF81A0006A91F48FFF726FB69
:1010800048208DF81B004FF48060ADF81800032055
:101090008DF81A0006A91848FFF718FB4FF4E13045
:1010A00002900020ADF814000C20ADF812000020D2
:1010B000ADF81000ADF80E00ADF80C0002A90F4815
:1010C00000F096F8012240F225510C4800F06AF831
:1010D00025208DF8040001208DF807008DF805000B
:1010E0008DF8060001A8FFF7C1FB0121034800F0BD
:1010F00016F807B000BD00000008014000380140AC
:1011000010B50022002340F66A14A14200D100BFAE
:101110000A1201249440A3B2DC43048010BD21B123
:10112000828942F40052828104E082894DF6FF7385
:101130001A408281704702460020B1F5007F00D13D
:1011400000BF13880B400BB1012000E00020704766
:1011500070B50246002400230025002040F66A16E0
:10116000B14200D100BFC1F3421501F01F030126B7
:1011700006FA03F3012D02D19689334006E0022DD1
:1011800002D1168A334001E0968A33400C120126C0
:1011900006FA04F41688344013B10CB1012000E0C3
:1011A000002070BDF0B50346002400260025002075
:1011B00040F66A17B94200D100BF1846C1F3421485
:1011C00001F01F06012707FA06F5012C01D10C30AA
:1011D00004E0022C01D1103000E014301AB107688D
:1011E0002F43076002E00768AF430760F0BD0000CF
:1011F0002DE9F04786B005460E460024A24600BF02
:10120000A1460027B08900B100BF2F462C8A4CF6BA
:10121000FF700440F08804432C82AC894EF6F31032
:101220000440B08831890843718908430443AC8184
:10123000AC8A4FF6FF400440B0890443AC8201A859
:10124000FFF70CFD1F48874202D1DDF810A001E036
:10125000DDF80CA0A88900F4004040B10AEBCA00F8
:1012600000EB0A1031684900B0FBF1F807E00AEB27
:10127000CA0000EB0A1031688900B0FBF1F8642065
:10128000B8FBF0F004012009642101FB1089A88952
:1012900000F4004040B1322000EBC900B0FBF1F097
:1012A00000F00700044308E0322000EB091064213D
:1012B000B0FBF1F000F00F0004432C8106B0BDE854
:1012C000F08700000038014001468888C0F308001C
:1012D0007047000010B504462146054800F00AF8A2
:1012E00000BF80210248FFF726FF0028F9D010BD7B
:1012F00000380140C1F308028280704770B504468F
:10130000002504E0605DFFF7E5FF681CC5B2605D85
:101310000028F7D170BD00BFFEE700000FB4054BF9
:1013200010B503A9044A029800F02CF810BC5DF82F
:1013300014FB000047150008300000200FB4084BD4
:1013400010B504A902AA039800F01CF8044602A9EB
:10135000002000F0F3F8204610BC5DF814FB0000FC
:101360003D15000802E008C8121F08C1002AFAD182
:1013700070477047002001E001C1121F002AFBD115
:10138000704700002DE9FF4F8BB09A460F46054687
:10139000002606E025280BD052460D9990476D1C7B
:1013A000761C28780028F5D10FB03046BDE8F08FC4
:1013B0000024A0460122604900E0044315F8013FE3
:1013C000203B02FA03F00842F7D128782E2817D1E3
:1013D00015F8010F44F004042A280ED06FF02F02F4
:1013E0002878A0F1300109290AD808EB880102EB1E
:1013F000410100EB01086D1CF2E757F8048B6D1CEE
:10140000287869283ED006DC0028CDD063280BD090
:10141000642804D136E0732810D075284BD052468A
:101420000D999047761C85E017F8040B8DF80000A5
:1014300000208DF80100E946012003E057F8049BE5
:101440004FF0FF3061074FF0000401D40AE0641C44
:1014500044450DDA8442FADB19F804100029F6D16C
:1014600006E0641C8442FCDB19F804100029F8D162
:10147000264404E019F8010B52460D999047641E6A
:10148000F8D257E001CF4FF00A0B002802DA4042B1
:101490002D2102E0210504D52B218DF824100121F6
:1014A00003E0E10705D02021F7E70DF120090891BD
:1014B0000CE00021F9E701CF4FF00A0BF9E759469C
:1014C000FEF768FE01F1300209F8012D0028F6D17F
:1014D000ADEB090000F1200B600701D44FF00108CB
:1014E000D84502DDA8EB0B0000E000208046002478
:1014F00006E009A85246005D0D999047641C761CD1
:1015000008988442F5DB04E0302052460D9990475C
:10151000761CB8F10001A8F10108F5DC05E019F826
:10152000010B52460D999047761CBBF10001ABF1BF
:10153000010BF4DC6D1C34E7092801000A68531C18
:101540000B601070704770B504460D46E0B2FFF7AF
:10155000C1FE204670BD00004FF4A060FFF7BEF949
:10156000FFF75CFAFFF768F9FFF750F9FFF770FD36
:10157000FEF738FEFEF736FFFEF7C4FF1AA2012180
:101580000846FFF719FB1AA201210220FFF714FBFE
:10159000C8211A48FEF7E1FD24E019480078012827
:1015A00019D118A11548FEF7E3FD20B10121174814
:1015B000FFF720F908E016A11048FEF7D9FD18B191
:1015C00001211248FFF718F9C8210C48FEF7C5FDA4
:1015D00000200B490870FEF73FFF0F4A9178107802
:1015E000FFF734F8D9E7000074656D703A00000029
:1015F00068756D69646974793A00000034000020F0
:10160000140000204C45445F4F4E0000000801408C
:101610004C45445F4F464600260000200000000075
:10162000000000000000000000000000000000F8C2
:1016300000000000000000333000000000100C0625
:10164000100C0600000000000000000040C07840C0
:10165000C0784000043F04043F040400007088FC8C
:1016600008300000001820FF211E0000F008F000E4
:10167000E018000000211C031E211E0000F0088855
:10168000700000001E2123241927211010160E00BF
:10169000000000000000000000000000000000E06A
:1016A000180402000000000718204000000204187F
:1016B000E00000000040201807000000404080F0DB
:1016C000804040000202010F01020200000000F011
:1016D000000000000101011F0101010000000000E5
:1016E0000000000080B0700000000000000000005A
:1016F00000000000000101010101010100000000E3
:101700000000000000303000000000000000000079
:1017100080601804006018060100000000E0100856
:101720000810E000000F102020100F00001010F82B
:10173000000000000020203F20200000007008086A
:1017400008887000003028242221300000300888EA
:10175000884830000018202020110E000000C02012
:1017600010F8000000070424243F240000F8088833
:10177000880808000019212020110E0000E01088C0
:1017800088180000000F112020110E0000380808F2
:10179000C83808000000003F000000000070880802
:1017A00008887000001C222121221C0000E0100883
:1017B0000810E0000000312222110F00000000C0DC
:1017C000C000000000000030300000000000008079
:1017D0000000000000008060000000000000804069
:1017E0002010080000010204081020004040404082
:1017F00040404000040404040404040000081020D5
:101800004080000000201008040201000070480819
:101810000808F0000000003036010000C030C82881
:10182000E810E0000718272423140B000000C0383C
:10183000E0000000203C23020227382008F88888B6
:1018400088700000203F202020110E00C0300808C2
:1018500008083800071820202010080008F8080899
:101860000810E000203F202020100F0008F8888892
:10187000E8081000203F20202320180008F888885E
:10188000E8081000203F200003000000C0300808D6
:101890000838000007182020221E020008F808005F
:1018A0000008F808203F210101213F20000808F826
:1018B000080800000020203F202000000000080849
:1018C000F8080800C08080807F00000008F888C009
:1018D00028180800203F20012638200008F80800BA
:1018E00000000000203F20202020300008F8F800F1
:1018F000F8F80800203F003F003F200008F830C003
:101900000008F808203F200007183F00E0100808F2
:101910000810E0000F10202020100F0008F8080821
:101920000808F000203F210101010000E010080834
:101930000810E0000F18242438504F0008F8888859
:1019400088887000203F2000030C30200070880839
:10195000080838000038202121221C00180808F847
:10196000080818000000203F2000000008F80800C8
:101970000008F808001F202020201F000878880099
:1019800000C83808000007380E010000F80800F809
:101990000008F800033C0700073C030008186880B3
:1019A0008068180820302C03032C30200838C80029
:1019B000C83808000000203F200000001008080878
:1019C000C83808002038262120201800000000FE1A
:1019D000020202000000007F40404000000C30C0C6
:1019E00000000000000000010638C00000020202F2
:1019F000FE000000004040407F00000000000402A4
:101A000002020400000000000000000000000000CE
:101A100000000000808080808080808000020204BE
:101A200000000000000000000000000000008080B6
:101A3000808000000019242222223F2008F8008024
:101A400080000000003F112020110E0000000080E7
:101A500080800000000E1120202011000000008076
:101A60008088F800000E112020103F2000008080A8
:101A700080800000001F222222221300008080F0BC
:101A8000888888180020203F2020000000008080E7
:101A900080808000006B94949493600008F800802C
:101AA00080800000203F210000203F200080989887
:101AB000000000000020203F2020000000000080E7
:101AC0009898000000C08080807F000008F8000027
:101AD00080808000203F24022D302000000808F87C
:101AE000000000000020203F202000008080808037
:101AF00080808000203F20003F20003F80800080C9
:101B000080800000203F210000203F2000008080D6
:101B100080800000001F202020201F008080008087
:101B20008000000080FFA12020110E000000008036
:101B300080808000000E112020A0FF808080800027
:101B40008080800020203F21200001000000808054
:101B5000808080000033242424241900008080E049
:101B6000808000000000001F202000008080000016
:101B700000808000001F202020103F2080808000F7
:101B80000080808000010E30080601008080008007
:101B9000008080800F300C030C300F00008080002C
:101BA000808080000020312E0E3120008080800057
:101BB0000080808080818E70180601000080808007
:101BC000808080000021302C2221300000000000A5
:101BD000807C020200000000003F40400000000046
:101BE000FF00000000000000FF0000000002027C77
:101BF000800000000040403F00000000000601019E
:101C00000202040400000000000000006573702F51
:101C10003100000000000000000000000000000093
:101C200000000000000000000000000000000000B4
:101C300000000000000000000000000000000000A4
:101C40000000000000000000000000000000000094
:101C50000000000000000000000000000000000084
:101C60000000000000000000000000000000000074
:101C7000901C0008000000203400000064130008DD
:101C8000C41C000834000020640400007413000821
:101C90000000000001020304010203040607080912
:101CA000020406080000002B4D5154545355425273
:101CB0004543563A000D00000000000000000000FF
:041CC0000000000020
:04000005080000ED02
:00000001FF
